{
  "address": "0xCf7Ed3AccA5a467e9e704C703E8D87F634fB0Fc9",
  "abi": [
    {
      "inputs": [
        {
          "internalType": "address",
          "name": "vrfCoordinatorV2",
          "type": "address"
        },
        {
          "internalType": "uint256",
          "name": "entranceFee",
          "type": "uint256"
        },
        {
          "internalType": "uint64",
          "name": "subscriptionId",
          "type": "uint64"
        },
        {
          "internalType": "bytes32",
          "name": "gasLane",
          "type": "bytes32"
        },
        {
          "internalType": "uint32",
          "name": "callbackGasLimit",
          "type": "uint32"
        },
        {
          "internalType": "uint256",
          "name": "interval",
          "type": "uint256"
        }
      ],
      "stateMutability": "nonpayable",
      "type": "constructor"
    },
    {
      "inputs": [
        {
          "internalType": "address",
          "name": "have",
          "type": "address"
        },
        {
          "internalType": "address",
          "name": "want",
          "type": "address"
        }
      ],
      "name": "OnlyCoordinatorCanFulfill",
      "type": "error"
    },
    {
      "inputs": [],
      "name": "Raffle__NotEnoughETHEntered",
      "type": "error"
    },
    {
      "inputs": [],
      "name": "Raffle__NotOpen",
      "type": "error"
    },
    {
      "inputs": [],
      "name": "Raffle__TransferFailed",
      "type": "error"
    },
    {
      "inputs": [
        {
          "internalType": "uint256",
          "name": "currentBalance",
          "type": "uint256"
        },
        {
          "internalType": "uint256",
          "name": "numPlayers",
          "type": "uint256"
        },
        {
          "internalType": "uint256",
          "name": "raffleState",
          "type": "uint256"
        }
      ],
      "name": "Raffle__UpkeepNotNeeded",
      "type": "error"
    },
    {
      "anonymous": false,
      "inputs": [
        {
          "indexed": true,
          "internalType": "address",
          "name": "player",
          "type": "address"
        }
      ],
      "name": "RaffleEnter",
      "type": "event"
    },
    {
      "anonymous": false,
      "inputs": [
        {
          "indexed": true,
          "internalType": "uint256",
          "name": "requestId",
          "type": "uint256"
        }
      ],
      "name": "RequestedRafflewinner",
      "type": "event"
    },
    {
      "anonymous": false,
      "inputs": [
        {
          "indexed": true,
          "internalType": "address",
          "name": "winner",
          "type": "address"
        }
      ],
      "name": "WinnerPicked",
      "type": "event"
    },
    {
      "inputs": [
        {
          "internalType": "bytes",
          "name": "",
          "type": "bytes"
        }
      ],
      "name": "checkUpkeep",
      "outputs": [
        {
          "internalType": "bool",
          "name": "upkeepNeeded",
          "type": "bool"
        },
        {
          "internalType": "bytes",
          "name": "",
          "type": "bytes"
        }
      ],
      "stateMutability": "nonpayable",
      "type": "function"
    },
    {
      "inputs": [],
      "name": "enterRaffle",
      "outputs": [],
      "stateMutability": "payable",
      "type": "function"
    },
    {
      "inputs": [],
      "name": "getEntranceFee",
      "outputs": [
        {
          "internalType": "uint256",
          "name": "",
          "type": "uint256"
        }
      ],
      "stateMutability": "view",
      "type": "function"
    },
    {
      "inputs": [],
      "name": "getInterval",
      "outputs": [
        {
          "internalType": "uint256",
          "name": "",
          "type": "uint256"
        }
      ],
      "stateMutability": "view",
      "type": "function"
    },
    {
      "inputs": [],
      "name": "getLastTimeStamp",
      "outputs": [
        {
          "internalType": "uint256",
          "name": "",
          "type": "uint256"
        }
      ],
      "stateMutability": "view",
      "type": "function"
    },
    {
      "inputs": [],
      "name": "getNumWords",
      "outputs": [
        {
          "internalType": "uint256",
          "name": "",
          "type": "uint256"
        }
      ],
      "stateMutability": "pure",
      "type": "function"
    },
    {
      "inputs": [],
      "name": "getNumberOfPlayers",
      "outputs": [
        {
          "internalType": "uint256",
          "name": "",
          "type": "uint256"
        }
      ],
      "stateMutability": "view",
      "type": "function"
    },
    {
      "inputs": [
        {
          "internalType": "uint256",
          "name": "index",
          "type": "uint256"
        }
      ],
      "name": "getPlayer",
      "outputs": [
        {
          "internalType": "address",
          "name": "",
          "type": "address"
        }
      ],
      "stateMutability": "view",
      "type": "function"
    },
    {
      "inputs": [],
      "name": "getRaffleState",
      "outputs": [
        {
          "internalType": "enum Raffle.RaffleState",
          "name": "",
          "type": "uint8"
        }
      ],
      "stateMutability": "view",
      "type": "function"
    },
    {
      "inputs": [],
      "name": "getRecentWinner",
      "outputs": [
        {
          "internalType": "address",
          "name": "",
          "type": "address"
        }
      ],
      "stateMutability": "view",
      "type": "function"
    },
    {
      "inputs": [],
      "name": "getRequestConfirmations",
      "outputs": [
        {
          "internalType": "uint256",
          "name": "",
          "type": "uint256"
        }
      ],
      "stateMutability": "pure",
      "type": "function"
    },
    {
      "inputs": [
        {
          "internalType": "bytes",
          "name": "",
          "type": "bytes"
        }
      ],
      "name": "performUpkeep",
      "outputs": [],
      "stateMutability": "nonpayable",
      "type": "function"
    },
    {
      "inputs": [
        {
          "internalType": "uint256",
          "name": "requestId",
          "type": "uint256"
        },
        {
          "internalType": "uint256[]",
          "name": "randomWords",
          "type": "uint256[]"
        }
      ],
      "name": "rawFulfillRandomWords",
      "outputs": [],
      "stateMutability": "nonpayable",
      "type": "function"
    }
  ],
  "transactionHash": "0x5d120f22c006ee9bd002f6d297d59e24d6f8e6f9d9f8eaf96848848030789448",
  "args": [
    "0x5FbDB2315678afecb367f032d93F642f64180aa3",
    "10000000000000000",
    "1",
    "0x474e34a077df58807dbe9c96d3c009b23b3c6d0cce433e59bbf5b34f823bc56c",
    "500000",
    "30"
  ],
  "numDeployments": 1,
  "solcInputHash": "69ba3eefeee2b2d631322092913fa4d3",
  "bytecode": "0x6101606040523480156200001257600080fd5b5060405162001839380380620018398339818101604052810190620000389190620001ad565b858073ffffffffffffffffffffffffffffffffffffffff1660808173ffffffffffffffffffffffffffffffffffffffff1660601b81525050508460a081815250508573ffffffffffffffffffffffffffffffffffffffff1660c08173ffffffffffffffffffffffffffffffffffffffff1660601b815250508261010081815250508367ffffffffffffffff1660e08167ffffffffffffffff1660c01b815250508163ffffffff166101208163ffffffff1660e01b815250506000600160146101000a81548160ff02191690836001811115620001195762000118620002b5565b5b0217905550426002819055508061014081815250505050505050506200036b565b6000815190506200014b81620002e9565b92915050565b600081519050620001628162000303565b92915050565b60008151905062000179816200031d565b92915050565b600081519050620001908162000337565b92915050565b600081519050620001a78162000351565b92915050565b60008060008060008060c08789031215620001cd57620001cc620002e4565b5b6000620001dd89828a016200013a565b9650506020620001f089828a0162000168565b95505060406200020389828a0162000196565b94505060606200021689828a0162000151565b93505060806200022989828a016200017f565b92505060a06200023c89828a0162000168565b9150509295509295509295565b6000620002568262000267565b9050919050565b6000819050919050565b600073ffffffffffffffffffffffffffffffffffffffff82169050919050565b6000819050919050565b600063ffffffff82169050919050565b600067ffffffffffffffff82169050919050565b7f4e487b7100000000000000000000000000000000000000000000000000000000600052602160045260246000fd5b600080fd5b620002f48162000249565b81146200030057600080fd5b50565b6200030e816200025d565b81146200031a57600080fd5b50565b620003288162000287565b81146200033457600080fd5b50565b620003428162000291565b81146200034e57600080fd5b50565b6200035c81620002a1565b81146200036857600080fd5b50565b60805160601c60a05160c05160601c60e05160c01c610100516101205160e01c61014051611452620003e7600039600081816107ec015261085a0152600061069b01526000610657015260006106780152600061061b0152600081816102fa01526103f7015260008181610337015261038b01526114526000f3fe6080604052600436106100c25760003560e01c806353a2c19a1161007f57806391ad27b41161005957806391ad27b414610238578063c1c244e814610263578063e55ae4e81461028e578063fd6673f5146102cb576100c2565b806353a2c19a146101a45780635f1b0fd8146101cf5780636e04ff0d146101fa576100c2565b806309bc33a7146100c7578063115cbaf5146100f25780631fe543e31461011d5780632cfcc539146101465780634585e33b14610150578063473f1ddc14610179575b600080fd5b3480156100d357600080fd5b506100dc6102f6565b6040516100e99190611058565b60405180910390f35b3480156100fe57600080fd5b5061010761031e565b604051610114919061103d565b60405180910390f35b34801561012957600080fd5b50610144600480360381019061013f9190610e31565b610335565b005b61014e6103f5565b005b34801561015c57600080fd5b5061017760048036038101906101729190610d41565b610564565b005b34801561018557600080fd5b5061018e610763565b60405161019b9190610f76565b60405180910390f35b3480156101b057600080fd5b506101b961078d565b6040516101c69190611058565b60405180910390f35b3480156101db57600080fd5b506101e461079c565b6040516101f19190611058565b60405180910390f35b34801561020657600080fd5b50610221600480360381019061021c9190610d8e565b6107a9565b60405161022f929190610fba565b60405180910390f35b34801561024457600080fd5b5061024d610856565b60405161025a9190611058565b60405180910390f35b34801561026f57600080fd5b5061027861087e565b6040516102859190611058565b60405180910390f35b34801561029a57600080fd5b506102b560048036038101906102b09190610dd7565b610888565b6040516102c29190610f76565b60405180910390f35b3480156102d757600080fd5b506102e06108cf565b6040516102ed9190611058565b60405180910390f35b60007f0000000000000000000000000000000000000000000000000000000000000000905090565b6000600160149054906101000a900460ff16905090565b7f000000000000000000000000000000000000000000000000000000000000000073ffffffffffffffffffffffffffffffffffffffff163373ffffffffffffffffffffffffffffffffffffffff16146103e757337f00000000000000000000000000000000000000000000000000000000000000006040517f1cf993f40000000000000000000000000000000000000000000000000000000081526004016103de929190610f91565b60405180910390fd5b6103f182826108db565b5050565b7f000000000000000000000000000000000000000000000000000000000000000034101561044f576040517fbd4e069500000000000000000000000000000000000000000000000000000000815260040160405180910390fd5b6000600181111561046357610462611332565b5b600160149054906101000a900460ff16600181111561048557610484611332565b5b146104bc576040517f1425571c00000000000000000000000000000000000000000000000000000000815260040160405180910390fd5b6000339080600181540180825580915050600190039060005260206000200160009091909190916101000a81548173ffffffffffffffffffffffffffffffffffffffff021916908373ffffffffffffffffffffffffffffffffffffffff1602179055503373ffffffffffffffffffffffffffffffffffffffff167f0805e1d667bddb8a95f0f09880cf94f403fb596ce79928d9f29b74203ba284d460405160405180910390a2565b600061057e604051806020016040528060008152506107a9565b509050806105ed5747600080549050600160149054906101000a900460ff1660018111156105af576105ae611332565b5b6040517f584327aa0000000000000000000000000000000000000000000000000000000081526004016105e493929190611073565b60405180910390fd5b60018060146101000a81548160ff0219169083600181111561061257610611611332565b5b021790555060007f000000000000000000000000000000000000000000000000000000000000000073ffffffffffffffffffffffffffffffffffffffff16635d3b1d307f00000000000000000000000000000000000000000000000000000000000000007f000000000000000000000000000000000000000000000000000000000000000060037f000000000000000000000000000000000000000000000000000000000000000060016040518663ffffffff1660e01b81526004016106dc959493929190610fea565b602060405180830381600087803b1580156106f657600080fd5b505af115801561070a573d6000803e3d6000fd5b505050506040513d601f19601f8201168201806040525081019061072e9190610e04565b9050807f54eafe7ea63e240a1b0ba70cee8cc1b931cb2ba13c85b890166fe5b3e067262c60405160405180910390a250505050565b6000600160009054906101000a900473ffffffffffffffffffffffffffffffffffffffff16905090565b6000600163ffffffff16905090565b6000600361ffff16905090565b600060606000600160149054906101000a900460ff1660018111156107d1576107d0611332565b5b600060018111156107e5576107e4611332565b5b14905060007f0000000000000000000000000000000000000000000000000000000000000000600254426108199190611153565b119050600080600080549050119050600080471190508280156108395750835b80156108425750805b801561084b5750815b955050505050915091565b60007f0000000000000000000000000000000000000000000000000000000000000000905090565b6000600254905090565b600080828154811061089d5761089c611361565b5b9060005260206000200160009054906101000a900473ffffffffffffffffffffffffffffffffffffffff169050919050565b60008080549050905090565b60008080549050826000815181106108f6576108f5611361565b5b602002602001015161090891906112a3565b9050600080828154811061091f5761091e611361565b5b9060005260206000200160009054906101000a900473ffffffffffffffffffffffffffffffffffffffff16905080600160006101000a81548173ffffffffffffffffffffffffffffffffffffffff021916908373ffffffffffffffffffffffffffffffffffffffff160217905550600067ffffffffffffffff8111156109a8576109a7611390565b5b6040519080825280602002602001820160405280156109d65781602001602082028036833780820191505090505b50600090805190602001906109ec929190610b0c565b50426002819055506000600160146101000a81548160ff02191690836001811115610a1a57610a19611332565b5b021790555060008173ffffffffffffffffffffffffffffffffffffffff1647604051610a4590610f61565b60006040518083038185875af1925050503d8060008114610a82576040519150601f19603f3d011682016040523d82523d6000602084013e610a87565b606091505b5050905080610ac2576040517fa1d04b3900000000000000000000000000000000000000000000000000000000815260040160405180910390fd5b8173ffffffffffffffffffffffffffffffffffffffff167f5b690ec4a06fe979403046eaeea5b3ce38524683c3001f662c8b5a829632f7df60405160405180910390a25050505050565b828054828255906000526020600020908101928215610b85579160200282015b82811115610b845782518260006101000a81548173ffffffffffffffffffffffffffffffffffffffff021916908373ffffffffffffffffffffffffffffffffffffffff16021790555091602001919060010190610b2c565b5b509050610b929190610b96565b5090565b5b80821115610baf576000816000905550600101610b97565b5090565b6000610bc6610bc1846110cf565b6110aa565b90508083825260208201905082856020860282011115610be957610be86113c9565b5b60005b85811015610c195781610bff8882610d17565b845260208401935060208301925050600181019050610bec565b5050509392505050565b6000610c36610c31846110fb565b6110aa565b905082815260208101848484011115610c5257610c516113ce565b5b610c5d848285611230565b509392505050565b600082601f830112610c7a57610c796113c4565b5b8135610c8a848260208601610bb3565b91505092915050565b60008083601f840112610ca957610ca86113c4565b5b8235905067ffffffffffffffff811115610cc657610cc56113bf565b5b602083019150836001820283011115610ce257610ce16113c9565b5b9250929050565b600082601f830112610cfe57610cfd6113c4565b5b8135610d0e848260208601610c23565b91505092915050565b600081359050610d2681611405565b92915050565b600081519050610d3b81611405565b92915050565b60008060208385031215610d5857610d576113d8565b5b600083013567ffffffffffffffff811115610d7657610d756113d3565b5b610d8285828601610c93565b92509250509250929050565b600060208284031215610da457610da36113d8565b5b600082013567ffffffffffffffff811115610dc257610dc16113d3565b5b610dce84828501610ce9565b91505092915050565b600060208284031215610ded57610dec6113d8565b5b6000610dfb84828501610d17565b91505092915050565b600060208284031215610e1a57610e196113d8565b5b6000610e2884828501610d2c565b91505092915050565b60008060408385031215610e4857610e476113d8565b5b6000610e5685828601610d17565b925050602083013567ffffffffffffffff811115610e7757610e766113d3565b5b610e8385828601610c65565b9150509250929050565b610e9681611187565b82525050565b610ea581611199565b82525050565b610eb4816111a5565b82525050565b6000610ec58261112c565b610ecf8185611137565b9350610edf81856020860161123f565b610ee8816113dd565b840191505092915050565b610efc8161121e565b82525050565b6000610f0f600083611148565b9150610f1a826113ee565b600082019050919050565b610f2e816111c2565b82525050565b610f3d816111f0565b82525050565b610f4c816111fa565b82525050565b610f5b8161120a565b82525050565b6000610f6c82610f02565b9150819050919050565b6000602082019050610f8b6000830184610e8d565b92915050565b6000604082019050610fa66000830185610e8d565b610fb36020830184610e8d565b9392505050565b6000604082019050610fcf6000830185610e9c565b8181036020830152610fe18184610eba565b90509392505050565b600060a082019050610fff6000830188610eab565b61100c6020830187610f52565b6110196040830186610f25565b6110266060830185610f43565b6110336080830184610f43565b9695505050505050565b60006020820190506110526000830184610ef3565b92915050565b600060208201905061106d6000830184610f34565b92915050565b60006060820190506110886000830186610f34565b6110956020830185610f34565b6110a26040830184610f34565b949350505050565b60006110b46110c5565b90506110c08282611272565b919050565b6000604051905090565b600067ffffffffffffffff8211156110ea576110e9611390565b5b602082029050602081019050919050565b600067ffffffffffffffff82111561111657611115611390565b5b61111f826113dd565b9050602081019050919050565b600081519050919050565b600082825260208201905092915050565b600081905092915050565b600061115e826111f0565b9150611169836111f0565b92508282101561117c5761117b6112d4565b5b828203905092915050565b6000611192826111d0565b9050919050565b60008115159050919050565b6000819050919050565b60008190506111bd826113f1565b919050565b600061ffff82169050919050565b600073ffffffffffffffffffffffffffffffffffffffff82169050919050565b6000819050919050565b600063ffffffff82169050919050565b600067ffffffffffffffff82169050919050565b6000611229826111af565b9050919050565b82818337600083830152505050565b60005b8381101561125d578082015181840152602081019050611242565b8381111561126c576000848401525b50505050565b61127b826113dd565b810181811067ffffffffffffffff8211171561129a57611299611390565b5b80604052505050565b60006112ae826111f0565b91506112b9836111f0565b9250826112c9576112c8611303565b5b828206905092915050565b7f4e487b7100000000000000000000000000000000000000000000000000000000600052601160045260246000fd5b7f4e487b7100000000000000000000000000000000000000000000000000000000600052601260045260246000fd5b7f4e487b7100000000000000000000000000000000000000000000000000000000600052602160045260246000fd5b7f4e487b7100000000000000000000000000000000000000000000000000000000600052603260045260246000fd5b7f4e487b7100000000000000000000000000000000000000000000000000000000600052604160045260246000fd5b600080fd5b600080fd5b600080fd5b600080fd5b600080fd5b600080fd5b6000601f19601f8301169050919050565b50565b6002811061140257611401611332565b5b50565b61140e816111f0565b811461141957600080fd5b5056fea26469706673582212207a8bf1afcd615585df0e894292cdd73fa146718a1c3d67f713a40357e4faf27264736f6c63430008070033",
  "devdoc": {
    "kind": "dev",
    "methods": {},
    "version": 1
  },
  "userdoc": {
    "kind": "user",
    "methods": {
      "checkUpkeep(bytes)": {
        "notice": "This is the function that the Chainlink Keeper nodes call they look for `upkeepNeeded` to return True. the following should be true for this to return true: 1. The time interval has passed between raffle runs. 2. The lottery is open, playerETH. 3. The contract has ETH. 4. Implicity, your subscription is funded with LINK. 5. The lottery should be in an \"open\" state. Something that we want to avoid when we're waiting for a random number to return and when we've requested a random winner. We're technically in this weird limbo state where we're waiting for a random number to be returned and we really shouldn't allow any new players to join. So what we actually want to do is create some state variable telling us whether the lottery is open or not and what we're waiting for our random number to get back will be in a closed or calculating state."
      },
      "getRaffleState()": {
        "notice": "Getter Functions "
      }
    },
    "version": 1
  },
  "storageLayout": {
    "storage": [
      {
        "astId": 207,
        "contract": "contracts/Raffle.sol:Raffle",
        "label": "s_players",
        "offset": 0,
        "slot": "0",
        "type": "t_array(t_address_payable)dyn_storage"
      },
      {
        "astId": 224,
        "contract": "contracts/Raffle.sol:Raffle",
        "label": "s_recentWinner",
        "offset": 0,
        "slot": "1",
        "type": "t_address"
      },
      {
        "astId": 227,
        "contract": "contracts/Raffle.sol:Raffle",
        "label": "s_raffleState",
        "offset": 20,
        "slot": "1",
        "type": "t_enum(RaffleState)202"
      },
      {
        "astId": 229,
        "contract": "contracts/Raffle.sol:Raffle",
        "label": "s_lastTimeStamp",
        "offset": 0,
        "slot": "2",
        "type": "t_uint256"
      }
    ],
    "types": {
      "t_address": {
        "encoding": "inplace",
        "label": "address",
        "numberOfBytes": "20"
      },
      "t_address_payable": {
        "encoding": "inplace",
        "label": "address payable",
        "numberOfBytes": "20"
      },
      "t_array(t_address_payable)dyn_storage": {
        "base": "t_address_payable",
        "encoding": "dynamic_array",
        "label": "address payable[]",
        "numberOfBytes": "32"
      },
      "t_enum(RaffleState)202": {
        "encoding": "inplace",
        "label": "enum Raffle.RaffleState",
        "numberOfBytes": "1"
      },
      "t_uint256": {
        "encoding": "inplace",
        "label": "uint256",
        "numberOfBytes": "32"
      }
    }
  }
}